:100000000C94A6030C94C3030C94C3030C94853383
:100010000C94C3030C94C3030C94C3030C94C30348
:100020000C94C3030C94C3030C940E2B0C94CA2A97
:100030000C940B2C0C94C3030C94C3030C94C303B7
:100040000C94C3030C94C3030C94C3030C94C30318
:100050000C94C3030C94E72B0C94C3030C94C303BC
:100060000C94C3030C94C3030C94C3030C94C303F8
:100070000C94C3030C94C3030C94C3030C94C303E8
:100080000C94C3030C94C3030C94C3030C94C303D8
:100090000C94C3030C94C3030C94C3030C94C303C8
:1000A0000C94C3030C94C3030C94C303050109808F
:1000B000A101850319012AB700150126B700950192
:1000C00075108100C0050C0901A101850419012AE0
:1000D000A002150126A002950175108100C00660DE
:1000E000FF0961A1010962150026FF00952075082E
:1000F00081020963150026FF00952075089102C052
:1001000005010906A101050719E029E715002501E8
:10011000950875018102950175088101050719008F
:1001200029FF150026FF00950675088100050819AE
:10013000012905950575019102950175039101C08D
:10014000FD377A585A000004E6D6B4460200210171
:1001500016000000742FE5A3E0070601AB5D003D2B
:100160008889C65436C3174FE4E5925EFB2C85247C
:1001700030ECB22A04D0580F74F067BEF19CD82539
:10018000D433405A1981158CD165AC4B1B4E55FBAD
:100190009E6EF8268856215023A748043976F56FBD
:1001A000BF5EDD23156D66812F99DDFEA3BD1E3771
:1001B000DED3F3971407463159D70AE39957ACB801
:1001C000482CAA5D51A7597ADD7D384AD206E8410C
:1001D00016B07DD9261DA64B9BB72F5C26B2DE112B
:1001E000CC3B924DD3C12D450CFB6F835782AFD6CC
:1001F000B7763F74A997C824F06E7A9253B47C41C5
:100200009362B227A982DB0E15D67F243D9EBA08E1
:10021000AD54B4778D22CDBE4ECDCE06B60DF24391
:10022000E86BE8F96BAC82CAEDC81496A7781B8B13
:10023000645B6412B6E342A0A230057563AC0C8A1D
:100240003E533DEB5D3CA2A9A50BF660033D87F450
:10025000F6EC4B13542D2FDBDC6BBEFA2EE4E3B728
:10026000EAC3CB1023269CDAB73DC587B0B18FE235
:100270003DE0596180707C51AE4058F19B6DD59A3C
:10028000B6974B9EDB4373CC8B999251BC0BD86DC8
:10029000B453D7B824D94C56B974E2C31B2D0C0DF6
:1002A000E50453612E8BCE6ED7201BF4FE7712C669
:1002B0000FB4C18B61D1B702E52AB945334DD29F46
:1002C0006204F8A7DA254119733CD0B0F5CC91D679
:1002D00042CD8B2FE11F591541FE118CED67E7BF11
:1002E000F03505767C89DCB979E9754802CCE438CB
:1002F000FC243A03A2F44AF0096A7F9C4D9DC15543
:10030000F4C64652FC61FEE46D0000004112953DCA
:100310006A7443970001C703870E0000892308F21F
:10032000B1C467FB020000000004595A35421E00A8
:100330001F0020002100220001512B0014001A0090
:100340000800150017002F00290004001600070000
:1003500009000A004B43E1001D001B0006001900C4
:1003600005004E00E30057005600556431612A0035
:100370004C002D42270026002500240023000151B7
:100380002E00130012000C0018001C003000340076
:1003900033000F000E000D000B004D43E500380048
:1003A00037003600100011004A004F005200510083
:1003B0005000E6002C00280001003A003B003C0001
:1003C0003D003E00010001001E021F022F0230020C
:1003D000310201000100200221022F00300035000F
:1003E0000100010022022302260227023502010039
:1003F00001000100010001000100010001000000F6
:1004000043004200410040003F0001000000560050
:10041000610060005F0054000100000057005E00B2
:100420005D005C0055000100000058005B005A00B0
:1004300059000000010000005800630062006200E3
:1004400001000100010001000100010001000100A4
:10045000010000000000F0000000F90000000100B1
:100460000000F200F100F300FA00000001000000BB
:10047000000000000000000000000100000000007B
:1004800000000000F400F50001000100010001007F
:100490000100010001000100000000000000000058
:1004A000000000000100000000004F005200510059
:1004B00050000000000000000000000000000000EC
:1004C0000100000000000000000000000100010029
:1004D00000003A003B003C003D003E00C55C0000CF
:1004E000005CCD5CC25CC35CC65C00000000000028
:1004F00000000000000000000100000000000000FB
:1005000000000000000000000000000000000000EB
:1005100000000000000000004300420041004000D5
:100520003F00C85C000000000000C95CCA5CC75CFA
:1005300000000000000000000000000000000100BA
:1005400000000000000000000000000000000000AB
:100550000000000000000000000000000100010099
:10056000FF03810CB40C000002000200FB03810CAD
:10057000B40C0000030001000004810CB40C000066
:1005800004000200E503810CB40C260705000100FD
:100590000104810CB40C000006000200E703810C8A
:1005A000B40C000007000200FD03810CB40C000035
:1005B000080001000204810CB40C000012000200CB
:1005C0000304810CB40C0000130002000504810C2C
:1005D000B40C0000140001000704810CB40C0000EE
:1005E000150000000000AC068015000009025B0049
:1005F000030100A0FA090400000103010100092120
:1006000011010001224000070581030800010904CF
:100610000100020300000009211101000122220053
:1006200007058203200001070503032000010904D8
:100630000200010300000009211101000122320023
:100640000705840320000112010002000000084495
:100650004D44520001010203011C03760069006150
:10066000006C003A0066003600340063003200621D
:10067000003300630000000C035200650064006F4B
:1006800000780000001003420072006F0063006BEE
:100690000061007200000004030904000000000073
:1006A000000000000000000000000000000000004A
:1006B0000000000000000000000000000000007EBC
:1006C0000F00D4FFFFFFC70000007800000000000B
:1006D0000000002A2B28000000000000000000009D
:1006E00000000000000029000000002C1E34202122
:1006F0002224342627252E362D3738271E1F202169
:1007000022232425263333362E37381F04050607C7
:1007100008090A0B0C0D0E0F1011121314151617E1
:1007200018191A1B1C1D2F3130232D3504050607FF
:1007300008090A0B0C0D0E0F1011121314151617C1
:1007400018191A1B1C1D2F3130354C0011241FBEE7
:10075000CFEFDAE0DEBFCDBF11E0A0E0B1E0E4E230
:10076000FBE602C005900D92A238B107D9F724E04C
:10077000A2E8B1E001C01D92A43FB207E1F70E94D8
:10078000322C0C9465350C940000FC01AC014B5FDD
:100790005F4F8FEF91E32191822728E030E087FFC0
:1007A00009C0880F892721503109C9F7E417F507D7
:1007B00091F70895880FF7CFE8EDF0E080818E7F04
:1007C00080831092E2001092DA001092E100A0EE15
:1007D000B0E08C9181608C9380818F77808319BC8D
:1007E000A7EDB0E08C918E7F8C9380818F7E80838B
:1007F0001092DB0408952091E4003091E50095E625
:10080000A9012091EC00822F817020FF06C0809109
:10081000E80080FF06C080E008952091E80022FDF6
:100820001AC08091F104882389F0853089F0809185
:10083000EB0085FD0FC02091E4003091E5004217E8
:100840005307F9F29150E1F684E0089582E00895AB
:1008500083E0089581E00895EF92FF920F931F9334
:10086000CF937C018B010E94FB03C82F811117C01D
:100870008091E80085FD0BC08091E8008E77809321
:10088000E8000E94FB03882399F3C82F08C0F701F2
:1008900081917F018093F1000150110949F78C2F5C
:1008A000CF911F910F91FF90EF900895CF93FC018E
:1008B0008091F104843001F5C091E900CF7020915E
:1008C000EC00922F917020FD90E8C92B82E080937C
:1008D000E9008091E80080FF0CC050E040E060E259
:1008E00070E0CF010E942C048091E8008E77809305
:1008F000E800CF70C093E900CF9108958091E9049A
:1009000087FF13C08091E80082FF06C08091E80055
:100910008B778093E80004C08091F1048111F2CFBD
:1009200008958091F1048823D9F38091E80080FF35
:10093000F8CF8091E8008E77ECCF982F9093E90064
:10094000242F762F50E0891731F07091EC00209120
:10095000ED005091F00021FD07C09F5F973071F7C7
:100960008093E90081E008953091EB003E7F309361
:10097000EB003091ED003D7F3093ED003091EB00C6
:1009800031603093EB007093EC002093ED005093B6
:10099000F0002091EE0027FDE0CF80E00895B0E068
:1009A000A0E0E5EDF4E00C94AB34C8EDD0E0888134
:1009B0008F7E8883E7EDF0E080818160808384E032
:1009C00082BF81E08093DB0488818E7F888302EE82
:1009D00010E0F80110821092DA0081EEC82ED12CBE
:1009E000F601108288818F77888388818068888368
:1009F00088818F7D888319BC1092F1041092E804DD
:100A00001092E7041092E60490EEE92EF12CF70123
:100A100080818B7F808388818160888342E060E071
:100A200080E00E949D04F60180818E7F8083F80122
:100A3000808181608083808188608083F7018081EC
:100A40008E7F8083888180618883CDB7DEB7E8E0C0
:100A50000C94C734FC018091EF049091F004861748
:100A60009707A0F06115710529F49091E8009E7731
:100A70009093E80090E06115710551F4911108C060
:100A80008091E80082FF34C080E00895BC01F2CF7D
:100A90008091F1048823C1F18530C1F18091E80093
:100AA00083FD30C08091E80082FDEACF8091E800AC
:100AB00080FFE1CF8091F3002091F200382F611583
:100AC000710519F02830310558F091E028303105D2
:100AD00009F090E02091E8002E772093E800CBCF3A
:100AE00081918093F100615071092F5F3F4FE7CFF3
:100AF0008091F104882341F0853041F08091E80035
:100B000083FFBECF81E0089582E0089583E00895D9
:100B1000089508958091DD04089587E797E79093FD
:100B200001088093000888E19AE00FB6F894A89530
:100B3000809360000FBE90936000FFCF9C014FB781
:100B4000F8948091D4049091D504A091D604B091EA
:100B5000D7044FBF821B930B08952FB7F894609171
:100B6000D4047091D5048091D6049091D7042FBFFE
:100B700008952FB7F8948091D4049091D504A09152
:100B8000D604B091D7042FBF08952091D10430919D
:100B9000D2042817390771F09093D2048093D104BE
:100BA000E091CF04F091D004309721F00084F185DA
:100BB000E02D099508952091CD043091CE04281799
:100BC000390771F09093CE048093CD04E091CF0467
:100BD000F091D004309721F00680F781E02D09953F
:100BE0000895CF93DF93EC014091BD045091BE0472
:100BF0006091BF047091C0042FB7F8948091D40421
:100C00009091D504A091D604B091D7042FBF841B36
:100C1000950BA60BB70B843F9140A105B10518F5C4
:100C20008091BD049091BE04A091BF04B091C00416
:100C30008093B9049093BA04A093BB04B093BC040E
:100C400084EF91E0A0E0B0E08093B5049093B60407
:100C5000A093B704B093B804D093C504C093C40460
:100C6000DF91CF9108950E94AD056093B904709310
:100C7000BA048093BB049093BC0482E390E0A0E0AC
:100C8000B0E0E2CFFC018481862351F49281992364
:100C9000B9F06923808583FF05C081E061110FC031
:100CA00080E00895892F8F7092959F70982B862FE2
:100CB0008F7062956F70682B81E09613F1CF089565
:100CC00081E0FDCF452B39F0682381E06F3F09F0CB
:100CD00080E08170089581E0FCCFDC016091B10477
:100CE0008091B204962F891301C00895292F30E016
:100CF000F901EE0FFF1FE755FB4F408151814A1765
:100D00005B07A1F487E08A9FA0018B9F500D1124FF
:100D10004F585B4F81E0FA0184839613E6CF2F5F33
:100D20003F4F237033272093B10408952F5F3F4F27
:100D3000922F9370D8CF10920E0410920D04E1E719
:100D4000F4E08581811102C014821682379684E016
:100D5000E93AF807B1F70895B0E0A0E0E2EBF6E079
:100D60000C94A9348FEF9FEF4430510508F469C00B
:100D70004091C20341FB882780F990E0880F991FBA
:100D800042FB002700F910E0000F111F000F111F98
:100D9000802B912B40FBCC24C0F8D12C8C299D2991
:100DA00043FB222720F9C22FE0E0DE2F53E0CC0FD7
:100DB000DD1F5A95E1F78C2B9D2B44FBAA27A0F948
:100DC000B0E0E4E0AA0FBB1FEA95E1F78A2B9B2B6A
:100DD00045FBEE27E0F9F0E0A5E0EE0FFF1FAA9536
:100DE000E1F78E2B9F2B46FB222720F930E0B6E05F
:100DF000220F331FBA95E1F7822B932B47FB222753
:100E000020F930E03695322F222737952795822B0F
:100E1000932B2091C303322F3170F32EE82EF92A41
:100E200026952170B22EBB0CA82EBF28C501BB0C85
:100E3000AA0BBB0BFB0180839183A283B38390E059
:100E400080E0CDB7DEB7EAE00C94C5348091E503CD
:100E50009091E60390932701809326010895E1E79E
:100E6000F2E090E080E06FE27AE246E55AE224EABE
:100E700039E2778366835187408733872287958756
:100E8000848701963E968830910599F708958115DB
:100E90002CE5920741F42091BC033091BD03232B34
:100EA00011F490E080E0089580E00895F894E82F30
:100EB000E295EF70F0E031A1282F2F7081E090E0F3
:100EC00001C0880F2A95EAF7982F9095932391A354
:100ED00092A1892B82A3789408959091C20392FFE6
:100EE00006C0282F28712830F9F4877F846093FF8B
:100EF00006C0282F28712831F1F4877E8461209163
:100F0000C30320FF06C0382F38713830D9F4877FEB
:100F1000816021FF06C0282F28712831D1F4877EF7
:100F2000816194FD877E0895282F24712430F9F67D
:100F30008B7F8860DCCF282F2471243101F78B7ED2
:100F40008861DDCF382F3171313019F78E7F88609D
:100F5000E0CF282F2171213121F78E7E8861E1CFEA
:100F6000CF93DF93EC0182389105B1F108F040C0D6
:100F70008133910509F49DC048F58932910509F442
:100F80008DC08A9709F49CC0C11522E5D20708F0EC
:100F9000BDC0C11531E5D30708F025C1C83ED10554
:100FA00008F0A3C0C13ED10588F5C83AD10508F0C4
:100FB0008EC0C53AD10508F0F6C0C130D10531F177
:100FC000209721F1C430D10508F545C0853391053E
:100FD00009F45FC0C997C1F68091C203837009F01C
:100FE00037C18091C30383FF11C0C9E2D0E00EC0B6
:100FF000833E910599F170F4803E910501F1823EA6
:10100000910511F68091C20382FD21C0CE01DF91CE
:10101000CF910895863E910561F1873E910571F16A
:10102000843E910509F0B0CF8091C30381FFEECFDC
:101030008091C203C7EED0E084FD0DC0E7CF809160
:10104000C20380FD33C09091C30390FFDFCFC3EE96
:10105000D0E084FFDBCFD0E0C0E0D8CF8091C203E6
:1010600082FDF3C09091C30390FDF2C084FFCECF08
:10107000F2CF8091C20383FDDDCFC8CF8091C20340
:1010800083FDE9C09091C30391FFF0CFC4EED0E09F
:10109000BDCF8091C20385FFB9CFA7CF8091C20396
:1010A00085FDDCC08091C30383FFB0CFC9E3D0E0EE
:1010B000ADCF8091C20386FFA9CFCAE2D0E0A6CF10
:1010C0008091C20386FFA2CFC1E3D0E09FCFCF3B88
:1010D000D10508F6C85AD0E0CC0FDD1FCA5CDE4F40
:1010E0000990D881C02DD46491CFC11540E5D407B3
:1010F00008F064C0C11580E4D80708F05CC0CE01D8
:101100009A9581159F4108F481CFA5CFC11536E589
:10111000D30718F5C11545E5D40708F07DC0C11502
:1011200084E5D80708F073C09C2F969596959E018C
:1011300023703327C115D34508F45AC0C1E0D0E06D
:1011400002C0CC0FDD1F2A95E2F730E2939FC00169
:101150001124C82BD92BDA6859CFC1158AE5D807D5
:1011600078F4C11529E5D20708F061C0C11538E54A
:10117000D30708F470CFDC2FCC27C06FD06A46CFDE
:10118000CE0190568115904208F065CF8D2F8F715A
:101190000E946D0790E0982F882788279F719C01F7
:1011A0002C2BE90142C0C55AD0E0CD5CDE4FC8818E
:1011B000D0E0D0642BCFDF70D06A28CF2C2F2695BB
:1011C0002695237080E2289F900111248C2F837034
:1011D000C1E0D0E002C0CC0FDD1F8A95E2F7C22B40
:1011E000D32BDD6813CFDC2FCC27C16FD06A0ECF95
:1011F000C1E0D0E002C0CC0FDD1F2A95E2F720E26B
:10120000929FC0011124C82BD92BDC68FFCEDC2FA4
:10121000CC27C46FD06AFACE8C2F0E946D07C82FDE
:10122000D0E0DC2FCC27CC27DF71D062EFCE8C2F23
:101230008F700E946D0734E0D695C7953A95E1F717
:10124000CF709C2FEC01D069E1CEC2EED0E0DECEB3
:10125000C0EED0E0DBCEC6EED0E0D8CEC5E3D0E025
:10126000D5CE80910402882331F0109204021092AE
:101270000302109202020895CF93C82F8091C303F6
:1012800082FF0CC0809104028C1741F00E94B905C6
:101290009093030280930202C0930402CF910895B9
:1012A00080959091F30498239093F304089580958A
:1012B0009091C40398239093C40308959091C4031C
:1012C000892B8093C40308951092F9011092F801BC
:1012D0001092F70108958091E7039091E803892B1C
:1012E00089F00E94B9052091020230910302AC01FD
:1012F000421B530B81E02091E7033091E803421732
:10130000530708F480E081700895E6E8F1E09191D8
:10131000891303C0DF0111971C9291E0EC38F907A3
:10132000B1F70895A6E8B1E0EFEF90E02D918217B4
:1013300051F0EF3F19F4211101C0E92F9F5F963062
:10134000A9F7EF3F09F408950E2E000CFF0BEC57A0
:10135000FE4F828308952091F6019091B5012913E3
:1013600002C080E0089530E0F90153E0EE0FFF1F66
:101370005A95E1F7EA54FE4F5181561306C0508149
:10138000581303C05281541304C02F5F3F4F27707E
:10139000E6CF81E008958091F6019091B501981310
:1013A00001C008958F5F8770FACF292F9A3078F5A2
:1013B000873068F590E037E0239F800D911D112460
:1013C000682F677023E0969587952A95E1F7FC01D1
:1013D000EE0FFF1FE80FF91FEE56FE4F50E040E002
:1013E00080E0219130E0062E02C0369527950A94C0
:1013F000E2F721703327042E01C0220F0A94EAF786
:10140000822B4F5F5F4F4330510559F7089580E0BD
:101410000895292F9A3098F5873088F590E037E0C5
:10142000239F800D911D1124282F277041E001C0BA
:10143000440F2A95EAF723E0969587952A95E1F7D8
:10144000FC01EE0FFF1FE80FF91FEE56FE4F30E0D4
:1014500020E070E05191DF011197CB01022E02C014
:10146000969587950A94E2F7817081958527842364
:1014700085278C932F5F3F4F2330310559F708950F
:1014800092959F70963091F058F4925F9F709230D1
:1014900058F4803F19F030F4883E30F481E008952C
:1014A0009A5FF4CF843FD1F380E00895883EB0F393
:1014B000813FD1F7F3CF9C013A9521153F4150F57B
:1014C000FC01EE27F170BC0166277270AC01442765
:1014D00054709C012227387094FF0EC080E1EF2BDE
:1014E00009F480E0672B09F08062452B09F08064E5
:1014F000232B89F08068089581E0EF2B09F480E0C8
:10150000672B09F08260452B09F08460232B19F0CA
:101510008860089580E008958093D8047093DA0479
:101520006093D9048091F1048430F9F48093E90048
:101530008FEF9091E800815095FD06C095ED9A954A
:10154000F1F700008111F5CF8091E80085FF0DC013
:1015500050E040E063E070E088ED94E00E942C04ED
:101560008091E8008E778093E8000895BC0184E0C4
:101570000E948C0A0895BC0183E00E948C0A0895A1
:10158000CF93DF93EC0181E08093E9008FEF90919E
:10159000E800815095FD06C095ED9A95F1F70000A1
:1015A0008111F5CF8091E80085FF14C050E040E044
:1015B00068E070E0CE010E942C048091E8008E77F4
:1015C0008093E80088E0FE01AEEDB4E001900D925A
:1015D0008A95E1F7DF91CF910895019708F4089576
:1015E000EFE9FFE03197F1F700C00000F6CFB0E07F
:1015F000A0E0EDEFFAE00C94A9347C015B016A01F4
:101600008091280201E010E08A3010F40AE010E036
:10161000C1E0D0E0B501C701F6010995811104C010
:1016200021960C171D072CF4CDB7DEB7EAE00C9419
:10163000C534CC9F9001CD9F300D300D112490E02A
:1016400080E045E34A95F1F7000001968217930781
:10165000C1F7E0CF80911002811110C08091D800B5
:1016600080618093D8008AE18A95F1F700C080916B
:10167000D90080FF0AC081E08093100281E0909140
:101680001002913009F080E0089582E0809310020A
:101690000E94DC031092F104F1CF0E942A0B8823F0
:1016A00059F0E091CF04F091D004309729F00190E7
:1016B000F081E02D0995089580E008950F931F9320
:1016C000CF93DF9305EE13E0C7E5D2E0CE010E9491
:1016D0001B35F80181938F012196CB37F2E0DF07AC
:1016E000A9F7C6E6D5E0FE0185919491009711F027
:1016F000FC0109952C96F5E0C63FDF07A1F7DF91C5
:10170000CF911F910F9108950F931F93CF93DF9364
:10171000843030F56A3020F5473010F5C42FD0E022
:10172000CC0FDD1F2EE0629FC00DD11D11243CE8BF
:10173000839FC00DD11D1124CE0187960E941B35B9
:10174000082F10E0102F0027CE0188960E941B352D
:101750009801282BC901DF91CF911F910F91089516
:1017600090E080E0F8CF462F2091C0033091C10374
:10177000232B99F4703F39F4603F79F48091BE03D4
:101780009091BF030895843040F47A3030F467308C
:1017900020F4672F0E94840B089590E080E0089564
:1017A000CF92DF92FF920F931F93CF93DF936C0141
:1017B0000091F20480910502082BC7E0D0E010E010
:1017C000FC2EC8010C2E02C0959587950A94E2F76D
:1017D00080FD0CC02197A0F7F12C8F2DDF91CF91C8
:1017E0001F910F91FF90DF90CF900895B6018C2F3D
:1017F0000E94B30B0E94B007019761F3EECFCF9325
:10180000DF93EC010E94D00BBE010E94B30B0E943B
:10181000B007DF91CF910895CF93DF93EC014B8117
:101820005C81698188810E946206811110C08E816D
:101830009F81009739F00E94B0070E94400ADF9113
:10184000CF910895888199810E94FF0BF6CF80E0A7
:10185000F6CFA5E0B0E0EFE2FCE00C94B0344983B1
:101860005A8389819A81662399F0222389F00E9404
:10187000D00B182F682F89819A810E94090A6981EB
:101880007A81812F0E94B30B2596E3E00C94CC342F
:101890000E94D509182FF3CFFC01262F868197814E
:1018A000009739F4408151816281738184810E9463
:1018B000290C089583E290E00E941B35823089F460
:1018C00084E290E00E941B35843259F485E290E076
:1018D0000E941B3591E0873409F090E0892F8170D8
:1018E000089580E0FCCFCF9384E090E00E941B3508
:1018F000C82F82E290E00E941B35982F8C2FCF9149
:101900000895DB01FC01329625913491421753076B
:1019100058F0FC01349665917491A901CD010E94A3
:10192000FB3490E080E008958FEF9FEF08950F93D0
:101930001F93CF93DF9305EE13E0C7E5D2E0CE010E
:101940000E941B35F80161918F01681719F0CE01D3
:101950000E9429352196CB37F2E0DF0781F7DF912E
:10196000CF911F910F910895DA019C012E5F3F4F97
:10197000F90145915491F90125913491A217B307CA
:1019800058F0FC013496859194910E94FB340E949A
:10199000970C90E080E008958FEF9FEF0895CF932C
:1019A000DF93CBE6D3E060E0CE010E94293521969B
:1019B000C11584E0D807B9F7DF91CF9108951F933F
:1019C000CF93DF93122F8430E0F46A30D0F44730A5
:1019D000C0F4C42FD0E0CC0FDD1F9EE0699FC00D86
:1019E000D11D11249CE8899FC00DD11D1124632FA6
:1019F000CE0187960E942935612FCE0188960E94DC
:101A00002935DF91CF911F910895CF93C82F6FEFA4
:101A1000811162E083E290E00E9429356FEFC111ED
:101A200064E284E290E00E9429356FEFC11167E41F
:101A300085E290E00E942935CF910895CF93C92F78
:101A4000682F84E090E00E9429356C2F82E290E0BC
:101A50000E942935CF9108959B01883070F49AE057
:101A6000899FB001112465587D4F4AE050E0C901BB
:101A70000E940B3590E080E008958FEF9FEF08956E
:101A8000AAE0B0E0E6E4FDE00C94B1349C013755E7
:101A90002F3F310509F068F4BE016F5F7F4F0E9450
:101AA0002C0D892B31F489859A852A96E2E00C94D5
:101AB000CD348091FD039091FE03F7CFAAE0B0E012
:101AC000E4E6FDE00C94A73404E413E082E3C82EBE
:101AD00083E0D82E9BE1E92E93E0F92E27E0922EA9
:101AE00031E3A32E33E0B32E88248394D6010D93E3
:101AF0001D936D014AE050E0B701CE0101960E94AE
:101B00000B35F8013896DF01892D1D928A95E9F78A
:101B100089819A81D80111969C938E938F81129618
:101B20008C9312978D8113968C93139788851496B6
:101B30008C931497898515968C9315978B819C812E
:101B400017969C938E93169718961C9218978A85D1
:101B500087FF3CC01E961C921E921D9780FF03C0FB
:101B6000D80118968C9281FF04C0F801908592608C
:101B7000908782FF07C0D80118969C9118979460AF
:101B800018969C9383FF04C0F80190859860908715
:101B900084FF07C0D80118969C91189790611896F9
:101BA0009C9385FF04C0F801808580628087015F77
:101BB0001F4FFAE0EF0EF11C8BE6E81683E0F80603
:101BC00009F094CF2A96ECE00C94C334F801B68661
:101BD000A586C4CFAAE0B0E0E0EFFDE00C94AB3402
:101BE000E1EEF2E080E5DF011D928A95E9F7E1E799
:101BF000F4E088E3DF011D928A95E9F781EEC82EB3
:101C000082E0D82E7F010BEC12E0F701D182C08276
:101C10004AE050E0B801CE0101960E940B3588E001
:101C2000FE013196D60101900D928A95E1F78985E2
:101C30009A85D70113969C938E931297BAE0CB0E98
:101C4000D11CE7E0EE0EF11C065F1F4F0B31F3E0F5
:101C50001F07D9F62A96E8E00C94C734A4E0B0E058
:101C6000E4E3FEE00C94AF3440912402509125024D
:101C700060912602709127022FB7F8948091D404C6
:101C80009091D504A091D604B091D7042FBF841BA6
:101C9000950BA60BB70B11E084369105A105B10594
:101CA00090F10E942A0B882399F10E94AD056E5F86
:101CB0007F4F8F4F9F4F69837A838B839C83809163
:101CC000120190911301865E9D4F4091110150E0E9
:101CD0004530510510F044E050E0BE016F5F7F4F8A
:101CE0000E94FB3482E090E00E942B34182F88235E
:101CF00051F00E94AD0560932402709325028093F9
:101D0000260290932702812F2496E4E00C94CB3492
:101D10000E94AD050091290210912A0220912B0208
:101D200030912C02600F711F821F931FC0CFEF9262
:101D3000FF921F93CF93DF9300D000D000D0CDB798
:101D4000DEB77B0190E080E00E942B34182F8823BF
:101D500009F480C04091040150E04115510511F093
:101D600041E050E06091050170910601665E7D4F93
:101D7000CE0106960E94FB34409116025091170244
:101D800060911802709119022FB7F8948091D404D1
:101D90009091D504A091D604B091D7042FBF841B95
:101DA000950BA60BB70B84369105A105B10540F440
:101DB0008BE192E00E94C5039E81891709F44AC015
:101DC00081E090E00E942B34811116C010E085E084
:101DD000E1E1F2E0D70101900D928A95E1F7812FC0
:101DE00026960FB6F894DEBF0FBECDBFDF91CF9120
:101DF0001F91FF90EF90089540910C0150E0463004
:101E0000510510F045E050E060910D0170910E0118
:101E1000665E7D4FCE0101960E94FB348BE192E01D
:101E20000E94C5039E818913D1CF0E94AD056093A6
:101E3000160270931702809318029093190285E09E
:101E4000FE013196A1E1B2E001900D928A95E1F791
:101E500011E0BDCF85E0EBE1F2E0DE0111960190EB
:101E60000D928A95E1F71111EACFB1CFAFE0B0E062
:101E7000ECE3FFE00C94A6348E010F5F1F4F8AE065
:101E8000D8011D928A95E9F786E6C82E81E0D82E02
:101E9000F12CE12CAA24A394B12C22E7822E21E07C
:101EA000922EF60181916F018F3F09F442C0F894A0
:101EB000E82FE295EF70F0E021A18F70A50102C03C
:101EC000440F551F8A95E2F7CA01922F982B91A3D0
:101ED00092A18095892382A3789400C0EBE6F1E07B
:101EE000712C31E021912F3F09F46BC0A22FA295F4
:101EF000AF70B0E090968C9190E02F7002C09595F5
:101F000087952A95E2F780FD5CC0832F782A330FEE
:101F10008E169F0639F7F601319780818F3F11F0B9
:101F20000E94560750EA5A95F1F7F801EE0DFF1D91
:101F300070828FEFE81AF80AA5E0EA16F10409F0BA
:101F4000B0CF4AE050E0B8018DE292E00E94EE345A
:101F5000009741F02AE0F801ADE2B2E001900D9265
:101F60002A95E1F700913802892B69F181E080938D
:101F700008020E94B905909307028093060280919F
:101F80000602909107020E949E05059700F110E05D
:101F90000B5A1D4F45E050E06DE272E0C8010E940F
:101FA000EE34B12C892B51F085E0EDE2F2E0D8015E
:101FB00001900D928A95E1F7BB24B3941092080228
:101FC00007C080E0A3CF809108028111D8CFB12C47
:101FD0000E942A0BF82EE0913802882309F46DC084
:101FE0006E01BBE0CB0ED11C85E0D6011D928A9517
:101FF000E9F70E2F10E00B5A1D4F809128028A300E
:1020000050F547E95EE0B601C8010E94F70A88234F
:1020100009F442C04EE25EE0B601C8010E94F70A30
:102020008823D1F1109228028091370290E045E098
:1020300050E0B6018B5A9D4F0E94EE3421E0209370
:102040000F02892BE1F4F12C1F2D812F8B292F9664
:10205000EDE00C94C2348091090290910A020E9432
:102060009E05843F914068F680910F02882359F3C2
:1020700085E0F60111928A95E9F710920F02A0917E
:102080003702B0E0AB5ABD4F85E0FE013B960190B0
:102090000D928A95E1F7D8CF809128028F3F31F0D9
:1020A0008F5F809328028A3008F4BECF0E94B90562
:1020B00090930A0280930902D7CFF0E0EB5AFD4FCC
:1020C00085E0ABE1B2E001900D928A95E1F78BE1FA
:1020D00092E00E94C50380931A02C0902002D09023
:1020E0002102E0902202F090230280910B02909155
:1020F0000C02A0910D02B0910E02C816D906EA0694
:10210000FB0611F410E0A1CFC0920B02D0920C029A
:10211000E0920D02F0920E020E942A0B182F8111FC
:10212000F1CF0E94AD05C61AD70AE80AF90AC09293
:102130002902D0922A02E0922B02F0922C0285CF43
:102140008091C4039091F304892B80938401809142
:102150000402882309F18091E7039091E803892B19
:1021600029F00E946B0981110E943109809184013C
:1021700090910402892B8093840120E086E891E00D
:10218000FC013191CF0131112F5FF1E08C389F07B5
:10219000B9F721110E9431098091C1048095909175
:1021A000840189239091C204892B8093840148E0A3
:1021B00050E06AEF71E084E891E00E94EE34892BF0
:1021C000A9F088E0E4E8F1E0AAEFB1E001900D9217
:1021D0008A95E1F7E091CF04F091D004309731F087
:1021E0000280F381E02D84E891E009950895CF9372
:1021F000DF93EC01EA85FB85309719F06C857D85CE
:1022000009958B810E9450098C810E9457090E9478
:10221000A01086E0FE0111928A95E9F7DF91CF9137
:102220000895CF93DF93EC018D8181FD15C082600D
:102230008D838091F3049B81892B8093F3048C819F
:102240000E945E090E94A010E885F985309721F070
:102250006C857D85CE0109951092CC041092CB043B
:102260008D8180FD03C0CE010E94F710DF91CF91D8
:10227000089580912801877F8093280182E00E9441
:1022800050098091280184FF06C08F7E8093280129
:1022900082E00E945E098091280185FF06C08F7D43
:1022A0008093280180E20E945E090E94A010089598
:1022B00090E080E00E94DB0590E080E00E94C50590
:1022C0001092F3040E94A01008958093F2040E94DB
:1022D000581108958091F204982F9670963021F449
:1022E00088600E9465110895877FFBCF21E030E070
:1022F00001C0220F8A95EAF720958091F20482238B
:102300000E94651108959091F90180958923809329
:10231000F901282F277091F4282F082E000C330B79
:102320009217130659F09091C30392FF07C0859549
:10233000859585950E9476110E9464090895909173
:10234000C30392FB222720F9281769F080FB92F93A
:102350009093C3038091C2039091C3030E941E0D0A
:1023600082E00E948311089521E030E001C0220F35
:102370008A95EAF78091F204822B0E9465110895F4
:102380009091C30392FF10C098E0899F900111249F
:10239000622B6093F9010E94B4110E94B9059093D9
:1023A000F8018093F70108950E94B4110895809375
:1023B00005020E94581108951092C403E6E8F1E066
:1023C00086E0DF011D928A95E9F70E945811089571
:1023D000AAE2B0E0EEEEF1E10C94B03489EE94E0C4
:1023E0002091F100DC012D93CD01B4E0813F9B07EA
:1023F000B9F78091EA04833009F472C0B8F48130EF
:1024000009F449C0823009F4B3C08091E80083FF29
:1024100096C28091E9049091EA049A3008F08FC244
:10242000E92FF0E0E959FA4C0C94D8348A3009F4D9
:102430008EC08B3009F471C0893039F78091E9047E
:10244000813219F78091ED049091EE04009711F01C
:102450000297D9F68091E800877F8093E800809109
:10246000E80082FF38C09091F3008091F20002975B
:1024700031F48091F100813011F0863021F48091A7
:10248000F1008093DD048091E8008B778093E80071
:102490000E947E04BACF8091E904813A09F0B5CF59
:1024A0008091E800877F8093E8008091ED0490910F
:1024B000EE04892B61F468E08EED94E070E00E94F8
:1024C0002A058091E8008B778093E8009ECF60E03A
:1024D00090E080E0F3CF8091F1048111C0CF95CFDF
:1024E0008091E904813A09F090CF8091ED049091B8
:1024F000EE04892B09F089CF8091E800877F8093D3
:10250000E8008091E80080FFFCCF80912A01809351
:10251000F1008091E8008E77B9CF8091E904813293
:1025200009F073CF8091ED049091EE04892B09F0AE
:102530006CCF8091E800877F8093E8000E947E0442
:102540008091EB0480932A010E94DC115ECF809180
:10255000E904813209F059CF8091E800877F8093A8
:10256000E8000E947E048091EC048093DC044DCF4F
:102570008091E904813A09F048CF8091E800877F93
:102580008093E8008091E80080FFFCCF8091DC041C
:10259000BECF803899F0823809F0D1C18091ED0426
:1025A0008F70873008F0CBC18093E9008091EB00F9
:1025B00085FB882780F91092E90006C08091E60427
:1025C0009091E704911182609091E800977F909339
:1025D000E8008093F1001092F1008091E8008E777E
:1025E000AAC1882309F498C1823009F0A8C180915A
:1025F000EB0481119BC18091ED048F702FEF280FA8
:10260000263008F09CC18093E9002091EB0020FF68
:102610008DC1933031F48091EB0080628093EB00A8
:1026200085C19091EB0090619093EB0021E030E048
:1026300001C0220F8A95EAF72093EA001092EA007F
:102640008091EB008860EACF811179C11091EB0491
:102650001F778091E3008078812B8093E300809145
:10266000E800877F8093E8000E947E048091E80064
:1026700080FFFCCF8091E30080688093E30082E0DC
:10268000111183E08093F1045AC18058823008F020
:1026900056C12091EB043091EC042C3DE3E03E0761
:1026A000A1F583E08A838AE289834FB7F894DE013B
:1026B000139620E03EE051E2E32FF0E05093570004
:1026C000E49120FF03C0E295EF703F5FEF708E2F23
:1026D00090E0EA30C0F0C7968D939D932F5F243130
:1026E00059F74FBF8091E800877F8093E8006AE246
:1026F00070E0CE0101960E942A058091E8008B7758
:102700008093E8001CC1C096E7CF8091ED049091C2
:10271000EE04432F55274330510509F44AC078F59C
:102720004130510509F485C08BE590E0ECEEF5E011
:102730004230510509F003C12091E800277F209322
:10274000E8002091EF043091F0048217930708F419
:102750009C0140E02115310509F070C041116EC0A7
:102760008091E80082FDC9CF8091F104882329F28D
:10277000853019F28091E80083FFF2CFBECF41325D
:10278000510509F447C04232510509F0D8C08330E1
:10279000910508F0D4C0FC01EE0FFF1FEB58FE4F6F
:1027A0000190F081E02D8E589E4FDC018C9190E0DD
:1027B0001DC0332721303105E9F02115310579F0AD
:1027C00022303105F9F02330310509F0B8C0E9E5D0
:1027D000F6E0E4918E2F90E0E9E5F6E007C0E7E946
:1027E000F6E0E4918E2F90E0E7E9F6E0009709F437
:1027F000A6C0A2CFE5E8F6E0E4918E2F90E0E5E8F0
:10280000F6E0F4CFE7E7F6E0E4918E2F90E0E7E71B
:10281000F6E0ECCF8330910508F091C0880F991F46
:10282000FC01E558FE4F0190F081E02D89E090E039
:1028300083CF82E190E0E7E4F6E07ECF8091F1047F
:10284000882309F45ACF853009F457CF8091E800E6
:1028500083FD53CF8091E80082FD82CF8091E80014
:1028600080FF78CF9091F3008091F200211531051F
:1028700019F08830910550F041E0089709F040E0E8
:102880008091E8008E778093E80064CF4491409374
:10289000F1003196215031090196E8CF803809F0D6
:1028A0004EC08091E800877F8093E8008091E80423
:1028B0008093F10092CE811142C01091EB0412304E
:1028C000F0F58091E800877F8093E8001093E8049A
:1028D0000E947E04112311F084E005C08091E30082
:1028E00087FDFACF81E08093F10442E061EC81E062
:1028F0000E949D0442E261EC84E00E949D0442E259
:1029000061EC82E00E949D0442E260EC83E00E9460
:102910009D048091F10413C08091EB04813079F41F
:1029200081E0933009F080E08093E7041092E900A1
:102930008091E800877F8093E8000E947E04809168
:10294000E80083FF0AC08091E800877F8093E80059
:102950008091EB0080628093EB00AA96E3E00C94F8
:10296000CC34E5EEF3E0128E138E8FEA90E0918383
:10297000808385E0848F28E833E13383228322E358
:1029800030E0378B268B28EC30E0318F208F158E8E
:10299000178E168E20E530E031A320A382A30E947B
:1029A000970C0E94DC111092C3031092C203E3EC57
:1029B000F3E08081846080838091C2039091C3039F
:1029C0000E941E0D0E945E0B0895AEE1B0E0EBEE9A
:1029D000F4E10C94A634A090BC03B090BD0381E058
:1029E00090E09093BD038093BC038CE2C82E83E0FB
:1029F000D82E00E0760110E015C0F4012591349145
:102A0000472D612F802F0E94DF0C82E0880E911CE1
:102A10007394E7E07E12F1CFFEE0EF0EF11C1F5F32
:102A20001A3019F04701712CE8CF0F5F8CE8C80EFF
:102A3000D11C0430F9F60E94B1141A8219821C824A
:102A40001B821E821D8218861F8288EC90E09A8766
:102A500089870BE712E04AE050E0B801CE01019609
:102A60000E944D35065F1F4F0B3CE2E01E0799F7B1
:102A70007E01FBE0EF0EF11C8AE0F70111928A95CE
:102A8000E9F74AE050E0B801C7010E944D35065F02
:102A90001F4F0B31F3E01F07A1F77E0185E1E80E20
:102AA000F11C8AE0F70111928A95E9F78FEF9FEF09
:102AB0009A8F898F87E08E8F4AE050E0B801C70176
:102AC0000E944D35065F1F4F0B36F3E01F07A1F73D
:102AD000B092BD03A092BC036E96EDE00C94C2349C
:102AE00080E00E94050D60E086E290E00E942935BA
:102AF0000E94E5140E94CF0C81E00E94050D08950C
:102B0000CF92DF92EF92FF928FEF9FEF443051050B
:102B100008F46AC0FB01C080D180E280F3800E948B
:102B2000DC118091C203C0FA80F9B701A601769545
:102B300067955795479540FB81F9B701A60122E0BB
:102B400076956795579547952A95D1F740FB82F979
:102B5000B701A60133E076956795579547953A9565
:102B6000D1F740FB83F9B701A601E4E076956795BC
:102B700057954795EA95D1F740FB84F9B701A6012F
:102B8000F5E07695679557954795FA95D1F740FB0F
:102B900085F9B701A601A6E0769567955795479503
:102BA000AA95D1F740FB86F9B701A601B7E0769563
:102BB000679557954795BA95D1F740FB87F980936C
:102BC000C2038091C303D0FA80F9D1FACC24C0F8B3
:102BD000C0FA81F98093C3038091C2039091C3032B
:102BE0000E941E0D90E080E0FF90EF90DF90CF906C
:102BF00008950E94DC112FEF84E39CE02150804077
:102C00009040E1F700C0000088E19AE00FB6F89428
:102C1000A895809360000FBE90936000FFCF88233B
:102C200021F00E9450090E94A0100895882339F0D5
:102C30009091F304982B9093F3040E94A0100895B0
:102C4000882321F00E9457090E94A010089588232C
:102C500021F00E945E090E94A0100895882309F4C3
:102C60004DC0823879F40E944D0B81FF47C089E343
:102C70000E9492090E94A01089E30E9485090E9487
:102C8000A0100895833859F40E944D0B80FF36C080
:102C900083E50E9492090E94A01083E5EECF84385C
:102CA00059F40E944D0B82FF29C087E40E949209CB
:102CB0000E94A01087E4E1CF9CEF980F913AE8F2D0
:102CC00090E2980F983050F4877091E001C0990F0E
:102CD0008A95EAF7892F0E945709D1CF9BE5980F73
:102CE000933028F490E080E00E94DB050895885A34
:102CF000873120F490E080E00E94C5050895FF929E
:102D00000F931F93CF93DF93F82E0091C604109179
:102D1000C7040115110509F449C01092C5041092A9
:102D2000C4041092C1041092C204D8011696CD9129
:102D3000DC919E013A9521153F4108F4D07ED1E007
:102D4000C11101C0D0E0D8011996ED91FC911A97FC
:102D5000309731F01B966D917C9180E00995D823D6
:102D6000DD2339F08CEF8C0F813A30F58C2F0E94E7
:102D70008509FF2099F0E091C604F091C704808591
:102D800084FD0CC08091C304882341F0808191812F
:102D90009C0121503109203B3D45A0F00E94A0102C
:102DA0001092C7041092C6041092C304C801CDB794
:102DB000DEB7E5E00C94CA340E94A0108C2F0E946C
:102DC0002E16D7CF0E94F105E9CFCF93DF93EC0108
:102DD0000E942E16CE010E945B0A9E01205E3109E0
:102DE0002830310510F0CD2B29F40E942016DF91F8
:102DF000CF9108950E940F16FACFCF93C82F882342
:102E0000C9F08238C9F40E944D0B81FD13C089E3DB
:102E10000E9492090E94A0102FEF87EE93E02150AC
:102E200080409040E1F700C0000089E30E948509DE
:102E30000E94A010CF9108958338A1F40E944D0BF9
:102E400080FDF8CF83E50E9492090E94A0102FEF29
:102E500081EE94E0215080409040E1F700C00000F6
:102E600083E5E4CF8438A1F40E944D0B82FDE2CFCC
:102E700087E40E9492090E94A0102FEF81EE94E057
:102E8000215080409040E1F700C0000087E4CECFA1
:102E90008CEF8C0F813A68F4E6E8F1E08191C81775
:102EA00081F121E0EC38F207C9F78C2F0E949209DA
:102EB000BFCF80E28C0F883048F4C77081E001C03A
:102EC000880FCA95EAF70E945E09B2CFEBE5EC0FD6
:102ED000E33040F4F0E0ED5CFE4F808190E00E9432
:102EE000DB05A8CFC85AC73108F0A4CFEC2FF0E01B
:102EF000EE0FFF1FEA5CFE4F808191810E94C505A5
:102F000099CF8C2F0E9485090E94A010CECF1F93CD
:102F1000CF93DF93182FC0910504D0910604893315
:102F200021F0C0910304D0910404812F0E94FD166A
:102F3000209739F4812F0E942E16DF91CF911F9197
:102F400008958FE99FE00197F1F700C000002197F5
:102F5000EFCFB0E0A0E0EFEAF7E10C94A934EC0188
:102F60008AE0A82E2881222309F48FC02130C9F5D8
:102F700099818A81913021F422960E94871705C099
:102F8000923029F422960E94FD162196EBCF9330C1
:102F900021F422960E942E16F8CF943011F021963B
:102FA000F4CF229630E020E0AE014F5F5F4F8053B8
:102FB000990B8A30910550F02150310930F38FE997
:102FC0009FE00197F1F700C00000F6CFA29EB0018C
:102FD000A39E700D11249C01260F371F8981EA01E1
:102FE000E3CFE22FF0E0E553F94FB490822F8695BE
:102FF0008695869590E0FC01E554F94FE4902770A2
:10300000F12C022E02C0F594E7940A94E2F731E025
:10301000E322FF24FC01E555F94FC490D12C022E88
:1030200002C0D594C7940A94E2F731E0C322DD24AC
:10303000FC01E556F94F049110E002C01595079583
:103040002A95E2F701701127E114F10419F081EEDD
:103050000E94FD16C114D10419F086EE0E94FD16DF
:103060008B2D0E948717C114D10419F086EE0E949F
:103070002E16E114F10419F081EE0E942E160115AE
:10308000110509F482CF8CE278CFCDB7DEB7EAE044
:103090000C94C534B0E0A0E0E0E5F8E10C94A9346C
:1030A0007C015B01C42FD22FFC0182818823A9F00F
:1030B0004093CA040E94B9059093C9048093C80440
:1030C000C77081E001C0880FCA95EAF70E942716F1
:1030D000CDB7DEB7EAE00C94C5341091CA041413DE
:1030E00038C08091C8049091C9040E949E056C016B
:1030F000B701C5010E94400DC816D90650F5C0E2BF
:10310000CD0F1D17C1F080E2810F883048F4177091
:1031100081E0012E01C0880F0A94EAF70E94201670
:10312000C83048F481E09D2F977001C0880F9A95B0
:10313000EAF70E942716802F0E948717C83040F6B2
:10314000D77081E001C0880FDA95EAF70E94201657
:10315000BFCFC77081E001C0880FCA95EAF7F6CFEC
:10316000CF93DF93EC010E945B0A9E01205E310940
:103170002830310510F0209741F40E9427168C2F3B
:103180000E94FD16DF91CF9108950E941616F7CF89
:10319000662329F02091F30422602093F3049C011C
:1031A0003056211540E2340720F0305E21153041C1
:1031B00008F499270E94B0180895B0E0A0E0E3EE6B
:1031C000F8E10C94AC347C018B01D42E8091280161
:1031D00082FF8CC0C0910B04D0910C04CE15DF058A
:1031E00021F0E114F10409F081C0809128018B7F66
:1031F0008093280181FD73C08091090490910A0495
:10320000A801481B590B81E020912601309127012C
:103210004217530708F480E08170F82E809128014E
:10322000F0FA81F980932801FE0183E0F695E79595
:103230008A95E1F7EE71FF27EB53FC4F2081318136
:10324000AE014F70552781E090E002C0880F991FB2
:103250004A95E2F7FF2009F444C0822B932B918317
:1032600080838091C40381FF08C080912801806120
:103270008093280182E00E9457098091C40385FF52
:1032800008C08091280180628093280180E20E941A
:1032900057096F2DCE010E94C818DD2031F08091B2
:1032A000000485FF02C086FF3BC08091030490911B
:1032B00004040E94ED0A80910B0490910C049C017F
:1032C0003056211540E2340720F0305E21153041A0
:1032D00008F499270E94E5160E9439111DC081E06B
:1032E0009BCF8095909582239323B9CFC7019927CF
:1032F00097013056211540E2340728F0305E211541
:10330000304108F0C7010E94E51680910B049091AE
:103310000C048E159F0501F310930A040093090411
:10332000CDB7DEB7E7E00C94C83468EE7EEF90E0EE
:1033300080E00E94473560E082E090E00E942935FD
:1033400060E083E090E00E9429351092050260E081
:1033500084E090E00E94293564E082E290E00E94DF
:10336000293560E085E090E00E94293560E086E044
:1033700090E00E9429356FEF87E090E00E942935A8
:1033800040E050E0BA0188E090E00E943B3560E008
:103390008DE090E00E94293540E050E0BA0188E1DC
:1033A00090E00E943B3560E087E190E00E94293583
:1033B00040E050E0BA018CE190E00E943B3570E0C3
:1033C00060E080E290E00E94473540E050E0BA01C2
:1033D00088E190E00E943B3580E00E94050D0E944C
:1033E000701540E050E0BA018FE090E00E943B355C
:1033F00040E050E0BA0183E190E00E943B3508953F
:10340000A7E0B0E0E6E0FAE10C94A1347C01DC0135
:1034100013964D915C91149711966C9111978C9124
:103420000E9462068111EEC061E0C7010E944C0C4F
:103430008C01F70182818823E1F08091CB04909187
:10344000CC040097B1F00817190799F0FEE08F9FA0
:10345000C0011124FC01EA58FD4F20812460208323
:103460008F589D4FDC010D931C930E9411111092F7
:10347000F304F7018281882311F40C94B222C8016D
:1034800082519F45409710F00C94A6228FEF93E055
:103490000E941B358111A6C07EEED72ED00E0BE602
:1034A00013E0D11036C019821A821B821C82992423
:1034B0009A9468012FEFC21AD20AC8010E941B35E4
:1034C00089831A82882309F48DC0813009F07FC076
:1034D000580132E0A30EB11CC6010E941B35C82E54
:1034E0008A83882309F47EC0C5010E941B35D82E2B
:1034F0008FEF8C0D8330D8F4580143E0A40EB11C3B
:10350000DB82DD2021F0CE0101960E94A917850102
:10351000D0CF0115F4E01F0709F464C0C8010E9470
:103520001B35811101C0DA940F5F1F4FBACF8BEFAB
:103530008C0D833030F5C8010396DB825C01DD2001
:1035400031F3580154E0A50EB11C0E941B358C8349
:103550008823E9F28B819C818130AFEF9A0710F0CC
:10356000982F8827B6E0CB1631F0E7E0CE1631F081
:103570000E941E2ACCCF0E94F829C9CF0E947F2921
:10358000C6CFF4E0CF12C3CF580124E0A20EB11C85
:10359000C80103960E941B35DD2021F1882311F11B
:1035A0008150990B989E9001999E300D11244D2DBC
:1035B0004150550BCA01820F931F019708F4A7CF02
:1035C000AFE9BFE01197F1F700C00000F6CFCE01E0
:1035D00001960E94A91756019ACF81E00E94B4116A
:1035E0000E946A118091F901877061F0D7011296EB
:1035F0008C91882339F08091C30382FF03C082E05D
:103600000E9483112796E2E10C94BD3481E00E9470
:103610007611E6CF82E0FBCF823009F0E1C78091DE
:103620006B0290916C02892B09F4DAC72EE02C9D75
:10363000C0012D9D900D1124FC01EA58FD4F208101
:103640002E7F20838F589D4F0E941111C9C781E0A2
:1036500080930001C7CF80910001882309F4A2C69E
:10366000480120EE821A91084090040280918F0157
:10367000482A8091C403482A38E08316910408F050
:1036800086C098012770332781E090E001C0880F41
:103690002A95EAF7552009F477C0482AD7018D9179
:1036A0009C910E94D50921E030E0F90102C0EE0FA3
:1036B000FF1F8A95E2F7FF83EE832090C6043090C7
:1036C000C70460908C0170908D011D822D81E22FC6
:1036D000F0E0EE0FFF1FEE5CFC4FC080D180C11404
:1036E000D10409F4C3C6411005C0D60112968C91CD
:1036F000811187C0F601838190E02E813F81822372
:103700009323892B09F47DC08085982F977009F445
:1037100087E038E08316910408F053C0552009F47F
:103720004CC086958170882309F46BC0D601AD909A
:10373000BC900A151B0519F4552009F462C0C21487
:10374000D30409F45EC0D6011D96ED91FC9130972B
:1037500021F08081882309F454C0642DC6010E94A1
:103760004206882309F44DC00A151B0509F089C7D4
:103770000115110509F48AC751108AC7A614B704A8
:1037800009F03FC0512C84C78095482287CF55202F
:1037900009F455C610938D0100938C010E94AD056C
:1037A0006093BD047093BE048093BF049093C004E3
:1037B0001092C5041092C40471CF82FB882780F94F
:1037C000B2CF5520F1F08170AECF0E942E167EC789
:1037D0000497813A910548F48A2D0E949209552058
:1037E00009F4E0C50E94A010FDCE0E94A0108FE356
:1037F0009CE90197F1F700C000008A2D0E94FD1698
:10380000EECF9D819F5F9D8361CFFC01208131813F
:103810000217130709F0BFC55110BFC51092C304AA
:1038200080E00E947F16BEC5902F812F03C6F9014C
:10383000858181FF2FC6C9010E94F7102BC6809198
:10384000280181608093280153C6809128018E7FD2
:10385000809328010E9439114BC6809128018F7EE8
:10386000013E110531F0053E1105C9F48091280192
:103870008F7D809328018091280180FF48C6D70161
:1038800012968C910832110528F50E31110508F0B9
:1038900072C00430110580F5811135C638C6C801E3
:1038A0009056811540E2940720F0905E811590417A
:1038B00010F78091280182FF2AC68091020481FDC1
:1038C00026C628E432E040E0B60190E080E00E94A5
:1038D000DD181DC60933110558F40D32110518F411
:1038E0000B321105C9F69091000492FDD5CF08C0A6
:1038F00004361105C1F3D0CF9091000494FDCCCFD4
:10390000882309F4A8C0809104029091C403892BF4
:103910008D7FB1F110920C0410920B048091000481
:1039200081FD2EC0F80143E0F695E7954A95E1F751
:10393000EE71FF27EB53FC4F98012F70332781E086
:1039400090E002C0880F991F2A95E2F78095909524
:1039500020813181822393239183808360E0C80199
:103960000E94C818809104028D7F0E943C0982E069
:103970000E94831137CE9091000493FD8DCFC0CF6C
:1039800088E0F701A8E4B2E001900D928A95E1F792
:1039900010924A0210924C0210924B0280910B043A
:1039A00090910C0408171907D1F52091000425FF08
:1039B00036C03091280131FF02C026FF30C020916F
:1039C000090430910A045601A21AB30AB7010E94F1
:1039D000400DA816B90618F58091C40381FF08C0F0
:1039E0008091280180618093280182E00E9457091C
:1039F0008091C40385FF08C0809128018062809374
:103A0000280180E20E945709609128016695617043
:103A100080910B0490910C040E94C818E3CD809112
:103A200004029091C403982B2091280191FB21F965
:103A3000209328018D7F0E943C0910930C04009371
:103A40000B04D0920A04C09209048091280184607A
:103A5000809328018CCF970140E0B601C8010E94F5
:103A6000DD18C0CD053F4CE5140709F463C008F428
:103A70005BC0063F8CE5180709F462C0D7011296B7
:103A80003C91332309F4CCC51092CA040330BDE540
:103A90001B0708F061C00A3FECE51E0730F4C801BF
:103AA00082509C45449708F063C00E94730C909329
:103AB000C3038093C20302315CE5150709F49EC17C
:103AC00008F0EEC009309CE5190709F475C108F04B
:103AD000B8C00530BCE51B0709F462C108F09FC0FF
:103AE0000330FCE51F0709F453C108F055C180916C
:103AF000C203816002303CE5130709F4CEC0809117
:103B0000C2039091C3030E941E0D0E94DC116ACD76
:103B100007E225EE45EE68ED7CE514C506E221EEF0
:103B200040EE63EF7CE50EC507E225EE44EE64EF60
:103B30007CE508C506E221EE42EE65EF7CE502C5B4
:103B400007E225EE46EE66EF7CE5FCC408E221E0E4
:103B500045EE69ED7CE5F6C4053AFDE51F0709F47D
:103B6000A4CF08F055C001364DE5140709F49DCFE8
:103B700006318CE5180709F458C50A355DE51507C7
:103B800009F495C108F06EC101159CE5190709F407
:103B900074C10E3D1C4509F47DC1F70186819781F2
:103BA000009709F488C10E94B007182F092FF70168
:103BB000C280D580D2943FE0D3228091F9018770F2
:103BC000C1F0AC2CCC20B1F0892F807F803421F063
:103BD00080E2810F883068F08091C30382FF09C0C2
:103BE00082E00E9483118091F9018770AA24A39436
:103BF0008111A12C902E92942FE09222FBE0F915D6
:103C000008F4E6C1E92DF0E0EF58FA4C0C94D834F2
:103C1000C8018D5A9D45039708F0AACF46CF8091E1
:103C2000C203806207304CE51407B9F18091C203EA
:103C3000806108305CE5150780F18091C2038064E3
:103C40002CC00D308CE5180709F4C0C090F48091A9
:103C5000C2038E7F0B30ACE51A07F9F08091C203E6
:103C60008C600C30BCE51B07C0F08091C2038D7FD7
:103C700014C00F30ECE51E0709F4B8C008F4AAC060
:103C800000312CE5120709F4B5C08091C2038F7B87
:103C900001313CE5130709F032CF8093C2032FCFE7
:103CA0000F3F4CE5140709F4B3C0A8F50A3F8CE5B3
:103CB000180709F479C0C0F40431ACE51A0709F417
:103CC000B5C008F4A1C00531ECE51E0709F017CF17
:103CD0008091C20382FB992790F921E0922790FB03
:103CE00082F990FB83F9D9CF0C3FFCE51F0709F45B
:103CF00075C008F45DC00D3F3CE5130709F472C0C0
:103D00008091C30383600E3F4CE5140709F0F7CEA2
:103D10008093C303F4CE01365DE5150709F491C025
:103D200090F401309DE5190709F489C008F474C0C6
:103D300060E00230BDE51B0709F0E1CE8EE090E0C7
:103D40000E942935DCCE0D3AEDE51E07E9F060F45E
:103D50009091C203892F8E7F90FF8160053A2DE5F7
:103D6000120709F49ACFCBCE0E3A3DE5130751F175
:103D70000F3A4DE5140709F0C2CE9091C303892F85
:103D8000877F93FF8860C4CF8091C3038860C0CFD2
:103D90008091C203826081CF8091C20384607DCF15
:103DA0008091C203886079CF8091C3038160B0CFD6
:103DB0008091C3038260ACCF0E94DC118091C2036A
:103DC00080686BCF8091C303877FA2CF8091C203AD
:103DD0008B7F63CF8091C203877F5FCF8091C303C6
:103DE0008E7F96CF8091C3038D7F92CF8091C20347
:103DF0008F7E53CF8091C2038F7D4FCF0E94DC1105
:103E00008091C2038F7749CF8091C203837F45CFD2
:103E10008091C3038C7F7CCF8091C303982F9095B2
:103E200091708E7F892B90FB81F972CF0E94DC11FB
:103E30009091C203892F97FB87F980582ECF61E0BC
:103E40007DCF9091C203892F8F7E94FF806125CF13
:103E500080918E01811104C089E20E948509C2CC43
:103E600085E3FBCF0C35BDE51B07B9F010F1073A30
:103E70001D4509F092CE0E94F9150E94DC112FEF2A
:103E800034E34CE0215030404040E1F700C00000F6
:103E90000E948D050E949519EECF8091C30382FB8D
:103EA000882780F991E089270E949F1176CE81E0D2
:103EB000FBCF80E0F9CF828100811181882369F0F6
:103EC000C8010E94D00BD82E682FC8010E94090A91
:103ED000B8018D2D0E94B30B66CEC8010E94D50992
:103EE000D82EF6CF202F2F70B22E802F807F19F082
:103EF000B29490EFB922CC20A9F0BB2059F080E217
:103F0000810F883010F0111107C08B2D0E945E09BF
:103F10000E94A010812F5AC08091F304B82AB09259
:103F2000F304F6CF812F0E942E16BB2009F450C057
:103F300080E2810F883010F0111104C08B2D0E9497
:103F4000570903C08B2D0E9450090E94A01040C049
:103F5000302F3F70B32E802F807F803219F0B294C3
:103F600080EFB822112321F1113009F4AEC0CC202A
:103F700009F4B7C0DD2009F47FC020E0D7014C91DF
:103F800011965C91119712966C91129713967C91F1
:103F9000139714968C910E94290C8091020481FD44
:103FA000B9CFF701858180FFB5CF8F70858364C05D
:103FB0008091C30382FD40C0CC20C1F1BB2029F019
:103FC0008B2D0E945E090E94A01080E00E94FD16C9
:103FD000A92DA850BB0B149710F40E944D0B812FF4
:103FE000902F0E94400A8111B7C110929101109246
:103FF0009001AA20B1F08091F90180FD12C0D70193
:1040000012961C928595859585950E94B411C701DD
:104010000E94001A8091F9018595859585950E94E9
:10402000761160E0C7010E944C0CECCA80E00E944F
:104030002E16BB2069F282CFCC2011F1D11004C022
:10404000809104028B2919C041E0D41206C08091EE
:1040500004028B290E943C09BBCF8091010482306D
:1040600078F3D812EDCF0E94310990918F018B2DFA
:10407000892B891380938F018B2D0E942716A8CF3F
:10408000D11003C00E94310917C08091010451E092
:10409000D51216C0823008F49BCF8091C4038B21C7
:1040A00009F496CF0E94310990918F018B2D809554
:1040B0008923891380938F018B2D0E94201688CF2E
:1040C000823000F3D812DECF83CF80910704CC205A
:1040D00021F08D1508F47CCFCFCFD81608F078CF1B
:1040E000EBCFDD2049F3809105049091060419334C
:1040F00021F080910304909104040E94ED0A812F25
:104100000E942E1665CF802F86958695837069F064
:10411000813009F05DCF812F902F9370C11002C0C4
:1041200090E080E00E94C50553CF812F902F9370BF
:10413000C11002C090E080E00E94DB0549CF802FD3
:10414000837091F5C11044CF412F42954695477039
:10415000440F440F812F8F70042E01C0880F0A94E2
:10416000EAF7212F207114FF07C02FE030E001C0D3
:10417000220F4A95EAF72095302F36953695337001
:10418000323069F050F440910502313029F0822B31
:1041900084230E94D7111CCF842B822BFACF282B8B
:1041A000809105028227F5CF8695CC2011F0802FD3
:1041B0008170882309F40CCF412F429546954770B2
:1041C000440F440F812F8F70042E01C0880F0A9472
:1041D000EAF7212F207114FF07C02FE030E001C063
:1041E000220F4A95EAF72095302F36953695337091
:1041F000323069F050F44091F204313029F0822BD2
:1042000084230E946511E4CE842B822BFACF282BC5
:104210008091F2048227F5CFF02FFF70BF2ECC20C3
:1042200029F08F2F0E94B411812F27CF812F0E9458
:1042300020168B2D0E947611CBCE123F89F160F4AF
:10424000103FB9F0113F81F0CC2009F480C0D110AB
:1042500061CE802F8F7128C0133F49F1143FA1F721
:104260008091C30382FD2FC0802F8F71CC2011F36A
:104270001BC080910704CC2079F0D81608F0A8CE96
:10428000202F2F7181E090E001C0880F2A95EAF776
:104290009091F2048927B5CF8D1508F499CEF0CF0F
:1042A000802F8F71C110C6CF0E94B41191CE80E0D3
:1042B000CC2009F4A6CF81E0902F9F7101C0880F18
:1042C0009A95EAF79ECF80910104823040F1CC208C
:1042D000D1F09091F9019770943041F40E946409F3
:1042E000802F8F710E947611A12C72CED816E0F724
:1042F000202F2F71B22E822F0E94B41163E08B2DDC
:104300000E94C011F1CFD81630F00E94640964E019
:10431000802F8F71F5CF81E00E948311E5CFCC20F3
:1043200059F0302F3F71B32E832F0E94B41163E0F8
:104330008B2D0E94C0114CCE81E00E94831141E080
:104340004D1508F045CE82E00E94831141CED11078
:10435000CACE802F8F716ECFCC2019F0D11045CEF0
:1043600048CED11042CE20E0F701408151816281D8
:10437000738184810E94290C8091020483FF35CED1
:104380008091900190919101029709F02ECE812F9A
:104390000E9487172ACE552029F0DC0118968C91AF
:1043A00085FF3ECAC80197558F3F910511F008F06F
:1043B00071C05801BB24BEE00B9FF00111249F0186
:1043C0002F583D4F6901D70112968C91EA58FD4F45
:1043D000908180FB90F99083882309F428CA0E9479
:1043E000B9059093470280934602F60182818F5F60
:1043F00082838091F3049091C403892B83838091FD
:10440000040284830680F781E02D309731F0D601D5
:104410001C966D917C91C60109958EE08A9DF001F4
:104420008B9DF00D1124EF58FD4F858181FFFCC954
:1044300090E080E09093CB048093CC042BC08091DB
:104440008C0190918D010817190781F410928D014C
:1044500010928C011092BD041092BE041092BF0401
:104460001092C0041092C5041092C4048091C60436
:104470009091C704009709F495CFA8E08A1691049B
:1044800008F0C3C9642D0E944206811103C081E077
:104490000E947F168091000480FF39C00E94B905F8
:1044A0006C01D70112968C91882309F4D6C98091AA
:1044B000280182FF08C028E432E040E0B60190E025
:1044C00080E00E94DD180B31BCE51B0709F4B7C979
:1044D0000C31ECE51E0709F4B8C990912801892F29
:1044E0008E7F90FF81600A31FCE51F0709F4B0C997
:1044F000C8019056811520E2920728F0905E811540
:10450000904108F0B8C910920C0410920B04033FBC
:10451000BCE51B0709F402CB08F0A4CA083DFCE582
:104520001F0709F4F5CA093D2CE5120709F40ECB63
:10453000073D3CE5130709F0A1CA06E221EE41EE72
:1045400067ED7CE5C7010E944A184CC80031FFE5C1
:104550001F0709F442C801312FE5120709F040C0D6
:1045600082E03CC800313FE5130709F44FC8013130
:104570004FE5140709F44EC86801E7E5DE1AFFEFBE
:10458000CF16D10409F060F567E672E08C2D0E9429
:104590002C0D892B29F58EE08C9DF0018D9DF00D61
:1045A0001124EF58FD4F8281813009F035C8809188
:1045B000670290916802892B99F08091690290912D
:1045C0006A02892B69F080916B0290916C022091B4
:1045D0006D0230916E02822B932B892B09F426C831
:1045E000D70112965C90552009F435C80F35BDE50A
:1045F0001B0709F42CC80036EDE51E0751F00E35F7
:10460000FDE51F0709F027C880910001882309F400
:104610001EC81092000180E00E947F160C94F21ACE
:1046200006315CE5150709F0B8CA8091C403982FDC
:104630009A7A2091FF0320FF04C0482F447409F0A8
:1046400090E021FF04C0482F417109F090E022FF63
:1046500004C0482F487809F090E023FF03C082721D
:1046600009F090E0332309F4F3CB81E0911101C00C
:1046700080E080938E0189E2911185E30E94920986
:10468000B1C8A114B10409F079C8512CB12CA12CE6
:1046900080E00E947F16D092C704C092C60481E0D9
:1046A0008093C304F60185818093C10451100EC02C
:1046B000AB2861F0F601808191819C012450310981
:1046C000213A310508F081C80E948509D601169665
:1046D000AD90BC90C5019A9581159F4110F4E0EE14
:1046E000BE2277247394C5010197803B9D4508F055
:1046F000712CD6011996ED91FC911A97309731F0F3
:104700001B966D917C9181E009957822772079F054
:10471000F601868197810E945B0A8093C204C501DD
:10472000F8E08F16910408F053C80E94F1050E942A
:10473000A01055C8B0E0A0E0E0EAF3E20C94AB347E
:104740008091B201807F31F48091AF01C091F60178
:10475000811107C0CDB7DEB7E8E00C94C7342196CD
:10476000C7708091B5018C17A9F3F090AD01E0906E
:10477000AE01C090B001D090B101A6016E2D8F2D79
:104780000E946206D0E08111EACF8E0183E0000F23
:10479000111F8A95E1F7F801EA54FE4F81818E11CD
:1047A000DECF80818F11DBCF82818111D8CFE38072
:1047B000F480EC18FD0860E08DEA91E00E944C0C5A
:1047C0006DEA71E00E94400DE816F90640F680910E
:1047D000B2018F7080618093B201F801E554FE4F01
:1047E00080818F70806180838DEA91E00E94001A41
:1047F0000E94CB09AFCFA5E1B0E0E1E0F4E20C9478
:10480000A4348C0185E0F801DE01519601900D92EF
:104810008A95E1F7D8015C9011966C9011971296E9
:10482000EC9012971396CD90DC9060E08DEA91E0C9
:104830000E944C0C8DEAA82E81E0B82E8090B00129
:104840009090B101A4016091AE018091AD010E94F0
:1048500062068111A8C1F090AF01F601E819F909CB
:104860004F0160E0FF2009F44BC1C5010E944C0CD0
:10487000B5010E94400D7090B2018816990608F0AB
:10488000F2C04091B0015091B101B090AD01A09043
:10489000AE01872D807F6A2D09F08CC08B2D0E9480
:1048A0006206FE2C811127C0D80111968C911197B8
:1048B0008A1121C08C918B111EC02091B3013091BF
:1048C000B40116968D919C9128173907A1F4E11037
:1048D00012C0872D8F7080618093B2018DEA91E0C4
:1048E0000E94001A8091B201F80185838F2D659690
:1048F000EFE00C94C034A601662D852D0E9462065F
:10490000D82E81E08E25D11080E080FF18C04E2D7A
:10491000662D852D0E94AB09882389F080910204C1
:1049200080FF0DC08DEA91E00E94001A88E0EDEA58
:10493000F1E0DF011D928A95E9F7F12CD7CF81E0F4
:104940008E25D11080E0B82FB170CB2E80FF29C00A
:104950004E2D662D852D0E94AB09D82E811121C0C8
:10496000598A6A8A89899A890E94FF0B292F229580
:104970002F70223050F0243078F49F7051F0F801FD
:104980009581907F31F4FD2CB1CF9F7011F0882379
:10499000D1F3805E8830B8F3C8010E94001ADC2C85
:1049A000F2CFEE2009F4A2CF8091B2018160809312
:1049B000B201C3CF8B2D0E946206811124C0D801A1
:1049C00011968C9111978A111EC08C918B111BC06E
:1049D0002091B3013091B40116968D919C91179757
:1049E0002817390781F4E1100EC015967C92C80192
:1049F0000E94001A88E0F801ADEAB1E001900D9242
:104A00008A95E1F773CFC8010E940C0C882339F115
:104A1000EE2029F18091B2018032A0F02091AD0109
:104A20003091AE013A8729871B86DD86CC868E873A
:104A30008091B3019091B401988B8F87CE01099634
:104A40000E94001A88E0F801ADEAB1E001900D92F1
:104A50008A95E1F70E949A23FF24F39447CFC80177
:104A60000E94001AF9CF872D807F09F45BCF9090C8
:104A7000AD018090AE014091B0015091B101682D1F
:104A8000892D0E94620681111CC0F8018181881164
:104A900018C08081891115C02091B3013091B401F3
:104AA000868197812817390761F4E1100AC0758261
:104AB000C8010E94001A88E0D5011D928A95E9F785
:104AC00015CFC8010E940C0C882349F2EE2039F260
:104AD0008091B201803208F4B5CF2091AD013091C0
:104AE000AE013A8329831B82DD82CC828E83809142
:104AF000B3019091B40198878F83CE010196A0CF26
:104B00008DEA91E00E944C0C6DEA71E00E94400D2C
:104B10008816990680F6FE2CEE2009F4A0CFE090CE
:104B2000AD01D090AE014091B0015091B1016D2D19
:104B30008E2D0E946206811128C0F80181818D119D
:104B400024C080818E1121C02091B3013091B40125
:104B50008681978128173907C1F48091020482FD6C
:104B600049CF9091B20190FD45CF907F09F442CF9B
:104B70008091B2018583903F09F439CF982F907FBF
:104B8000905F8F70892B858332CFC8010E940C0CF7
:104B9000811158CF8091B20181608093B201C80128
:104BA0000E94001AA3CEEE2009F459CFC8010E943A
:104BB0000C0CF82E882309F452CF88E0F801ADEAF6
:104BC000B1E001900D928A95E1F78091AD0190914D
:104BD000AE010E94FF0B0E949A2388CEA0E1B0E0B4
:104BE000E4EFF5E20C94B13429873A874B875C8770
:104BF0006D877E878F87988BCE0109960E94FB2355
:104C000081112FC088E0FE013996DE0111960190D6
:104C10000D928A95E1F74C855D856A8589850E94AC
:104C2000620681111EC0A091B501B0E0CD010196D0
:104C3000877099272091F60128171906E1F093E073
:104C4000AA0FBB1F9A95E1F7AA54BE4F98E0FE0148
:104C5000319601900D929A95E1F78093B5010E94EB
:104C6000CB098091F6019091B501891312C060962D
:104C7000E2E00C94CD340E94DC111092B501109248
:104C8000F60188E0EDEAF1E0DF011D928A95E9F78F
:104C9000E8CFB8E08B9FC00111248A549E4F0E9438
:104CA000FB23882321F38091F60190E00196877021
:104CB00099278093F601D5CFEF92FF920F931F9320
:104CC000CF93DF9380911004882361F0C0910F048B
:104CD0008CE0F82E80911004C81748F01092100450
:104CE00010920F04CDB7DEB7E6E00C94C934EE2481
:104CF000E394EC0EE0920F040C2F10E0CF9DE00146
:104D00001124CF5EDB4F4B815C81698188810E94D9
:104D1000620681111DC08E819F81892B21F48885B7
:104D20009985019651F4288139814A815B816C8192
:104D30007D818E819F810E94EE25F09EF001F19E83
:104D4000F00D1124EF5EFB4F148213821092F304D6
:104D5000CE2DC0CF1092B4041092B304109229014A
:104D60008091B2048093B1040E949B060E945C264D
:104D70000895B0E0A0E0EFEBF6E20C94A234C0910D
:104D8000B10497E0892E01E010E02CE0322E3EEFD6
:104D9000932E442443948091B2048C1309C00E9442
:104DA0005C260E949B06CDB7DEB7E1E10C94BE34D1
:104DB000D0E0FE01EE0FFF1FE755FB4F8081918190
:104DC000889ED001899EB00D1124AF58BB4F149618
:104DD0002C911497211158C050901004E1E1F4E097
:104DE00030E020E0712C5D01251508F04BC0E28415
:104DF000F384D501CD90DC906FEF7FEF612C462DD1
:104E000050E0DA01AA0FBB1FAC0DBD1D0D90BC9187
:104E1000A02D109731F0EA16FB0609F4BA0163944D
:104E2000EECF6F3F7607A9F1D80102C0AA0FBB1FD2
:104E30006A95E2F77A2AB801062C02C0660F771F3E
:104E40000A94E2F7AB014150510974161506F9F4C2
:104E5000329EF001339EF00D1124EF5EFB4F889ED1
:104E6000D001899EB00D1124AF58BB4F12962D91E1
:104E70003C91139737832683908291829187808714
:104E800015964C920E946D062196C37084CF1482B1
:104E900013822F5F3F4F3C96A7CFA9E1B0E0E3E537
:104EA000F7E20C94A134942F498B252F5A8B6B8BEE
:104EB0007C8B8D8B4C895D89622F892F0E946206C5
:104EC000811109C080919001909191010196909378
:104ED0009101809390018B8981111092F3041D86BA
:104EE0001E861F86188A85E0FE017196DE011996DE
:104EF00001900D928A95E1F78091C30382FF1EC055
:104F00008091E7039091E803892BC1F00E94B905D5
:104F10002091F7013091F801821B930B2091E70358
:104F20003091E8038217930720F08091F90182FF06
:104F3000E2C10E946B0981110E9431094C855D8597
:104F40006A8589850E946206811111C061E0CE01E7
:104F500009960E944C0C6C018B8527EFC2162CE53C
:104F6000D20681F4882321F181E0809329012985EB
:104F70003A854B855C856D857E858F8598890E94F5
:104F8000EE25C6C038EFC3163CE5D30629F48823C6
:104F900079F00E94AA26EBCF49EFC4164CE5D4065F
:104FA00039F4882329F0809129018111F2CFDCCFD7
:104FB00001E714E0512CB12CA12C22242394312C94
:104FC0002EEF422EF8014081518188248A94982C3A
:104FD00020E0822F90E0FC01EE0FFF1FE40FF51F91
:104FE000608171816115710531F0C616D70609F42B
:104FF0004C012F5FEECFF12CFFEF8F169F0609F4C7
:1050000049C0F8014481F09029018F2D411180E0C1
:10501000F82FF170FF2EF801E58086819B8599239A
:1050200009F4F8C0FF2009F4F5C06090FB0370900C
:10503000FC03E11013C0A101082C01C0440F0A9425
:10504000EAF7842B868380910D0490910E048615D7
:10505000970520F470920E0460920D04C10102C005
:10506000880F991F2A95E2F70197F80126812817E2
:10507000190681F48091B3049091B404009709F467
:105080004BC00E949E056816790608F045C021E0D5
:10509000F80124835F28FFEFAF1ABF0A095F1F4F93
:1050A00028E0A216B10409F08DCF8B85882309F47E
:1050B0000DC1552009F40AC10E94B9059093B404AA
:1050C0008093B30480911004883010F591E0980F1C
:1050D0009093100498E0FE013996DE01119601903C
:1050E0000D929A95E1F73CE0839FC00111248F5EF9
:1050F0009B4F28E0FE013196DC0101900D922A952C
:10510000E1F72FEF3FEFFC0131872087D386C2867E
:105110006996E2E10C94BD348091B1045091B204DF
:10512000982FF0E0E0E0851314C09093B104E017ED
:10513000F10709F4AFCF90E0FC01EE0FFF1FE75538
:10514000FB4FB182A0820196837099278093B204AD
:10515000A1CF682E712CF301EE0FFF1FE755FB4F17
:105160002081318147E0429FD001439FB00D11243F
:10517000AF58BB4F6D917C911197798F688F40E04C
:1051800020E030E0E32FF0E0EE0FFF1F688D798D17
:10519000E60FF71F8080918081149104E1F0F801FF
:1051A0000190F081E02DFF8BEE8B20E005C086168C
:1051B000970609F44F2D2F5FE22FF0E0EE0FFF1F4F
:1051C0006E897F89E60FF71F608171816115710516
:1051D00071F73F5FD7CF4423D1F0F801231708F0D0
:1051E000FD0121E024830E171F0721F49093B104E1
:1051F000F42E50CF981305C0AE17BF0711F49F5F70
:10520000937093012F5F3F4F822F83708CCFF0E01C
:10521000E0E0F7CF90E0E11020C0B10102C0660FDE
:10522000771F2A95E2F79B012150310982179307D6
:1052300031F4442309F448C0C5010E946D06C10140
:10524000082C01C0880F0A94EAF7982F9095F8016E
:10525000868189238683FE2C1DCF9C01082C02C0E9
:10526000359527950A94E2F7A90141705527BC01AD
:105270006150710986239723892B11F5452B01F184
:10528000F80182819381892BC1F01B821C821D82CF
:105290001E8249824A820E94B9058160582F9D83EF
:1052A0008C83F801828193818F83988729813A8149
:1052B0004B816D817E810E94EE25F8011582BFCF62
:1052C000F22FF170EF2EBBCFEF2CB9CF9091B1043C
:1052D0008091B204981731F00E94B926552009F444
:1052E00046CE16CF0E945C261092B4041092B304EE
:1052F0000E949B06F3CF82E00E9483111ACEA5E0A4
:10530000B0E0E5E8F9E20C94B1349093BF038093E8
:10531000BE03811520E2920730F40E94E51625961F
:10532000E2E00C94CD3480EF89838A831B820E9453
:10533000B9058160782F9D838C8349815A816B8167
:105340008D810E944D27EBCF0F931F93CF93DF9357
:105350008C01EB0167E672E08C2F0E942C0D892BEB
:10536000A1F480910304909104040E94ED0ADD27CA
:10537000C15ADD4F8881F801128218828330F1F022
:1053800048F4813059F0823081F0DF91CF911F9144
:105390000F9108958430B9F08530B9F78091670294
:1053A00090916802009789F306C0809169029091FC
:1053B0006A02009799F30E947F29E7CF80916B02E0
:1053C00090916C02F6CF80916D0290916E020097E1
:1053D00091F7209167023091680280916902909163
:1053E0006A0221153105F1F2009729F7C901E3CFCF
:1053F000A5E0B0E0EEEFF9E20C94B1349093BF0376
:105400008093BE03811520E2920730F40E94B01809
:105410002596E2E00C94CD3480EF89838A8381E085
:105420008B830E94B9058160782F9D838C8349818D
:105430005A816B818D810E944D27EACFCF93DF93F4
:10544000EC010E94F82980910304909104040E94C9
:10545000ED0ACE010E947F29DF91CF9108950F932D
:105460001F93CF93DF938C01862F67E672E00E9433
:105470002C0D892BB1F4C0916702D091680220975E
:1054800081F0F8018281833051F4CE010E941E2AFE
:10549000CE010E941E2ACE010E941E2A02C0843024
:1054A000D0F7DF91CF911F910F9108950F931F9324
:1054B000CF93DF938C01EB0167E672E08C2F0E94A3
:1054C0002C0D892B09F05CC0FE01FF27D801129634
:1054D0008C911297E15AFD4F8130B9F415969C9149
:1054E00092FF02C080830AC090FFFCCF82E08083DD
:1054F0008091690290916A020097B9F480916702E5
:10550000909168020097E1F110C08230B9F51596CC
:105510008C9182FD28C080FD0BC083E08083809148
:105520006B0290916C02009701F10E94F82928C04B
:1055300084E0808380916D0290916E020097A9F7BC
:1055400080916702909168020097F9F00E941E2AEC
:105550008091690290916A02009739F78091670201
:1055600090916802E2CF85E08083809167029091FC
:105570006802009729F00E941E2AF0CF86E08083FF
:10558000DF91CF911F910F910895809169029091C1
:105590006A02B8CF1F920F920FB60F9211242F9369
:1055A0003F934F935F936F937F938F939F93AF93AB
:1055B000BF93CF93DF93EF93FF93D091E900DF7018
:1055C0008091EC00C82FC17080FDC0E81092E90006
:1055D0008091F000877F8093F00078940E94E8111A
:1055E0001092E9008091F00088608093F000CD2B4C
:1055F000CF70C093E900FF91EF91DF91CF91BF9100
:10560000AF919F918F917F916F915F914F913F915A
:105610002F910F900FBE0F901F9018951F920F9211
:105620000FB60F9211242F933F934F935F936F9375
:105630007F938F939F93AF93BF93EF93FF9380914B
:10564000E10082FF09C08091E20082FF05C08091E5
:10565000E1008B7F8093E1008091DA0080FF24C01D
:105660008091D80080FF20C08091DA008E7F8093E7
:10567000DA008091D90080FF9DC080E189BD82E180
:1056800089BD09B400FEFDCF81E08093F1048091D3
:10569000DB04811109C00E94DC030E94CF048091C9
:1056A000E20084608093E2008091E10080FF17C0F7
:1056B0008091E20080FF13C08091E2008E7F809392
:1056C000E2008091E20080618093E2008091D80046
:1056D00080628093D80019BC85E08093F1048091AA
:1056E000E10084FF2BC08091E20084FF27C080E1AD
:1056F00089BD82E189BD89B5982F917080FFFBCF6C
:105700008091D8008F7D8093D8008091E1008F7EBA
:105710008093E1008091E2008F7E8093E20080918F
:10572000E20081608093E2008091E804882309F41C
:1057300047C084E08093F1048091F1048091E100FE
:1057400083FF27C08091E20083FF23C08091E100A6
:10575000877F8093E10082E08093F1041092E80457
:105760008091E1008E7F8093E1008091E2008E7F46
:105770008093E2008091E20080618093E20042E049
:1057800060E080E00E949D048091F000886080933A
:10579000F000FF91EF91BF91AF919F918F917F9119
:1057A0006F915F914F913F912F910F900FBE0F908E
:1057B0001F90189519BC1092F1041092DB0474CF5D
:1057C0008091E30087FD93E09093F104B5CF789446
:1057D0001F921FB61F9211248F939F93AF93BF9375
:1057E0008091D4049091D504A091D604B091D704AF
:1057F0000196A11DB11D8093D4049093D504A0936C
:10580000D604B093D704BF91AF919F918F911F9011
:105810001FBE1F9018951F921FB61F9211248F93C1
:105820009F93AF93BF938091D304811113C0809154
:10583000D4049091D504A091D604B091D704419698
:10584000A11DB11D8093D4049093D504A093D604D8
:10585000B093D704BF91AF919F918F911F901FBEBE
:105860001F901895CDB7DEB7ED970FB6F894DEBF51
:105870000FBECDBF85B7806885BF85B7806885BFFF
:1058800084B7877F84BF0FB6F894A8958091600095
:10589000886180936000109260000FBE80E890E005
:1058A0000FB6F89480936100909361000FBE84E579
:1058B00097E090938301809382010E942F070E94BA
:1058C000EA0D0E945E0D0E945E0B0E94DC030E94A6
:1058D000CF048091E20084608093E200789480910C
:1058E000F1048823A1F01091E9001F709091EC0061
:1058F000892F817090FD80E8182B1092E90080912B
:10590000E80083FD0E94E8111F701093E90082E017
:1059100084BD93E095BD9AEF97BD80936E00109281
:10592000290210922A0210922B0210922C020E943D
:105930005A0C811102C00E9470150E942A0B80939C
:1059400019010E942A0B81110E943F338091190195
:105950008091190195E0811190E09093380285E0E3
:10596000891B8093370206E611E0D8018D918D01E5
:105970008F3F11F00E945607B1E00B361B07A9F7C5
:105980000BE611E0F80181918F018F3F11F00E9429
:105990005607F1E002371F07A9F78AE0E5E5F2E0D4
:1059A000DF01282F1D922A95E9F7EDE2F2E0DF01F1
:1059B0001D928A95E9F790E080E00E942335883EA9
:1059C0009E4F21F40E945A0C811102C00E94951929
:1059D00082E090E00E941B3580933B020E94730C92
:1059E0009093C3038093C2030E94360FEFE3FCE958
:1059F0003197F1F700C000000E94360F80915502E8
:105A000080FF08C06FEF7FEF90E080E00E94473595
:105A10000E948D0583E090E00E941B350E94D71103
:105A20000E942A0B811102C00E9442338AE191E058
:105A30009093D0048093CF0485E592E0FAE0F80FCC
:105A4000FDAF2E012BE2420E511C8091F104E0E4E7
:105A5000FE2E00E112E1853009F486C00E94360F67
:105A60006CE3E62E62E0F62E75E5A72E72E0B72E07
:105A700026E432E0D501F70191918D912E173F0771
:105A800009F47CC09817C1F30E942A0B682E55E5D3
:105A9000C52E52E0D52E10E0D6010D916D01F70113
:105AA00071907F01701629F17026912C88248394BF
:105AB000872D8821B1F06620A1F098AE19AF91E052
:105AC000802F882109F490E09AAF0E94B905816087
:105AD000782F9CAF8BAF48AD59AD6AAD8CAD0E94AD
